S01D00004F62737461636C655F41766F6964696E675F4361722E73726563D5
S11300000C943A000C944C000C944C000C944C004E
S11300100C9470040C942C040C9430060C944C0036
S11300200C944C000C944C000C94B9030C94750380
S11300300C944C000C944C000C944C000C944C000C
S11300400C944C000C944C000C944C000C944C00FC
S11300500C944C00BB04D404E404F40404051D050E
S11300602D053D054D055A05670574058105B30544
S11300709A05A70511241FBECFE5D8E0DEBFCDBF8A
S113008020E0A0E6B0E001C01D92AE38B207E1F76F
S11300900E944F020C9437080C94000041E064E085
S11300A083E00E94530242E060E08FE00E94B104CA
S11300B00895CF92DF92EF92FF926B017C018FE162
S11300C09EE40E940306A0E3B7E0A70196010E9404
S11300D02C0824EB30E040E050E00E94F507DA0100
S11300E0C90180529E4FAF4FBF4F0E940606FF903A
S11300F0EF90DF90CF900895809162008F5F80939E
S11301006200813031F40E942D0680E00E941906BD
S11301100895823059F40E942506809362000E945B
S11301202D061092620081E00E94190608950E9433
S11301303F030E9409068CE790E00E94280640E0F5
S113014066E083E00E94530241E065E083E00E94A0
S1130150530240E065E083E00E94C902089541E053
S113016065E083E00E94C9028AE18A95F1F700C044
S113017040E065E083E00E94C9020895CF93DF93D5
S1130180C0E0D0E014C00E94AF00609160007091A4
S1130190610080E090E00E94FA0620E030E547E646
S11301A052E40E9459060E94CB06CB012196C0312D
S11301B0D1054CF3DF91CF910895CF92DF92EF9266
S11301C0FF92682F70E080E090E00E94FA066B01D5
S11301D07C010E946503C701B6010E941C04FF90C4
S11301E0EF90DF90CF90089540E060E080E00E94BF
S11301F0C90240E061E080E00E94C90240E062E0A0
S113020080E00E94C90240E064E080E00E94C902EC
S1130210089540E060E080E00E94C90241E061E0AE
S113022080E00E94C90240E062E080E00E94C902CE
S113023041E064E080E00E94C902089541E060E08A
S113024080E00E94C90240E061E080E00E94C902AF
S113025041E062E080E00E94C90240E064E080E0A6
S11302600E94C902089541E060E080E00E94C90252
S113027040E061E080E00E94C90240E062E080E08A
S11302800E94C90241E064E080E00E94C90208952E
S113029040E060E080E00E94C90241E061E080E06B
S11302A00E94C90241E062E080E00E94C90240E08D
S11302B064E080E00E94C90208958CE30E94DD009E
S11302C041E060E080E00E94C90240E061E080E03B
S11302D00E94C90240E062E080E00E94C90241E05D
S11302E060E081E00E94C9022FEF82E597E021508F
S11302F080409040E1F700C000000E94F4008CE3CD
S11303000E94DD0008956817790728F40E943301DC
S11303100E94330108956817790728F00E94480164
S11303200E94480108950A9738F46A30710520F450
S11303300E945D010E945D0108958CE30E94DD002E
S11303400E94BE00009711F48AEF90E0409708F0F5
S113035060C00E941E012FEF82E597E0215080408B
S11303609040E1F700C000000E94F4002FEF82E506
S113037097E0215080409040E1F700C0000067E81A
S113038070E080E090E00E9459002FEF82E597E052
S1130390215080409040E1F700C000000E94BE0060
S11303A0EC012FEF82E597E0215080409040E1F787
S11303B000C0000068E671E080E090E00E9459000F
S11303C02FEF82E597E0215080409040E1F700C094
S11303D000000E94BE008C012FEF82E597E02150BF
S11303E080409040E1F700C000006EE071E080E0E2
S11303F090E00E9459002FEF82E597E02150804061
S11304009040E1F700C00000B801CE010E948301D2
S113041097CF0E9409012FEF89E698E1215080408F
S11304209040E1F700C000008BCF0E94430341E0FD
S113043063E081E00E9453020E94FA0341E067E016
S113044083E00E9453020E944E006EE071E080E05F
S113045090E00E9459000E9497008CE30E94DD0006
S113046041E060E080E00E94530241E061E080E00E
S11304700E94530241E062E080E00E94530241E0A6
S113048060E081E00E94530241E062E082E00E9469
S1130490530241E067E082E00E94530208950E9403
S11304A015020E949D01843008F072C0683008F083
S11304B06FC0423008F06CC0813001F130F08230FE
S11304C0B1F1833009F44CC00895413059F42AB392
S11304D081E090E002C0880F991F6A95E2F7822BB1
S11304E08ABB08952AB381E090E002C0880F991F67
S11304F06A95E2F7809582238ABB0895413059F4C6
S113050027B381E090E002C0880F991F6A95E2F753
S1130510822B87BB089527B381E090E002C0880F47
S1130520991F6A95E2F78095822387BB089541302D
S113053059F424B381E090E002C0880F991F6A95B2
S1130540E2F7822B84BB089524B381E090E002C0DB
S1130550880F991F6A95E2F78095822384BB0895DA
S1130560413059F421B381E090E002C0880F991F13
S11305706A95E2F7822B81BB089521B381E090E074
S113058002C0880F991F6A95E2F78095822381BB88
S11305900895843008F072C0683008F06FC04230AB
S11305A008F06CC0813001F130F08230B1F1833059
S11305B009F44CC00895413059F42BB381E090E024
S11305C002C0880F991F6A95E2F7822B8BBB0895AE
S11305D02BB381E090E002C0880F991F6A95E2F77F
S11305E0809582238BBB0895413059F428B381E070
S11305F090E002C0880F991F6A95E2F7822B88BBAE
S1130600089528B381E090E002C0880F991F6A958D
S1130610E2F78095822388BB0895413059F425B3CD
S113062081E090E002C0880F991F6A95E2F7822B5F
S113063085BB089525B381E090E002C0880F991F1F
S11306406A95E2F78095822385BB0895413059F479
S113065022B381E090E002C0880F991F6A95E2F707
S1130660822B82BB089522B381E090E002C0880F00
S1130670991F6A95E2F78095822382BB08958FB70C
S113068080688FBF089583B7806483BF83B7877FF3
S113069083BF83B78F7E83BF83B7806283BF83B7F3
S11306A0816083BF83B78D7F83BF83B7846083BF3B
S11306B080E090E0A0E8B4E4809376009093770023
S11306C0A0937800B0937900089520E030E04FEFD4
S11306D053E40E94880720E030E048E453E40E9499
S11306E059060E94CB066CBF08951F920F920FB655
S11306F00F9211242F933F934F935F936F937F93A4
S11307008F939F93AF93BF93EF93FF93809169006F
S113071090916A00019690936A0080936900A0E02A
S1130720B0E0409172005091730060917400709138
S1130730750084179507A607B70751F480916E00DA
S113074082BFE0E0F0E0099510926A00109269001F
S1130750FF91EF91BF91AF919F918F917F916F9195
S11307605F914F913F912F910F900FBE0F901F906B
S113077018951F920F920FB60F9211242F933F9347
S11307804F935F936F937F938F939F93AF93BF9395
S1130790EF93FF9380916700909168000196909386
S11307A0680080936700A0E0B0E04091820050911F
S11307B08300609184007091850084179507A607D3
S11307C0B70739F41092680010926700E0E0F0E097
S11307D00995FF91EF91BF91AF919F918F917F9177
S11307E06F915F914F913F912F910F900FBE0F909A
S11307F01F90189585B5806485BD85B5877F85BDB7
S113080085B58F7E85BD85B5806285BD85B58160E2
S113081085BD85B58D7F85BD85B5846085BD80E04A
S113082090E0A0E8B4E480937E0090937F00A093CE
S11308308000B0938100089520E030E04FEF53E44E
S11308400E94880720E030E048E453E40E945906FF
S11308500E94CB0663BD08951F920F920FB60F92AC
S113086011242F933F934F935F936F937F938F93B1
S11308709F93AF93BF93EF93FF9380916500909103
S1130880660001969093660080936500A0E0B0E056
S113089040917A0050917B0060917C0070917D00C2
S11308A084179507A607B70751F480918A0084BD81
S11308B0E0E0F0E009951092660010926500FF9167
S11308C0EF91BF91AF919F918F917F916F915F91C4
S11308D04F913F912F910F900FBE0F901F9018953D
S11308E01F920F920FB60F9211242F933F934F93A1
S11308F05F936F937F938F939F93AF93BF93EF9384
S1130900FF9380916300909164000196909364003A
S113091080936300A0E0B0E040918600509187008E
S1130920609188007091890084179507A607B7071E
S113093039F4E0E0F0E0099510926400109263004D
S1130940FF91EF91BF91AF919F918F917F916F91A3
S11309505F914F913F912F910F900FBE0F901F9079
S1130960189590E08031910508F0FDC0FC01E65D2A
S1130970FF4F0C9417088FB58E7F8FBD8FB58D7F79
S11309808FBD8EB5877F8EBD8EB58F7E8EBD89B7A8
S1130990846089BF89B7877F89BF89B78F7E89BF04
S11309A089B78F7D89BFDFC08FB581608FBD8FB55B
S11309B08D7F8FBD8EB5877F8EBD8EB58F7E8EBDAC
S11309C081E080936D00CFC08FB58E7F8FBD8FB5D2
S11309D082608FBD8EB5877F8EBD8EB58F7E8EBDB6
S11309E082E080936D00BFC08FB581608FBD8FB5ED
S11309F082608FBD8EB5877F8EBD8EB58F7E8EBD96
S1130A0083E080936D00AFC08FB58E7F8FBD8FB5AF
S1130A108D7F8FBD8EB588608EBD8EB58F7E8EBD69
S1130A2089B78B7F89BF89B7877F89BF89B7806181
S1130A3089BF89B78F7D89BF96C08FB581608FBD0F
S1130A408FB58D7F8FBD8EB588608EBD8EB58F7E40
S1130A508EBD85E080936D0086C08FB58E7F8FBD7F
S1130A608FB582608FBD8EB588608EBD8EB58F7E4A
S1130A708EBD86E080936D0076C08FB581608FBD9A
S1130A808FB582608FBD8EB588608EBD8EB58F7E2A
S1130A908EBD87E080936D0066C08FB58E7F8FBD5D
S1130AA08FB58D7F8FBD8EB5877F8EBD8EB58061EE
S1130AB08EBD59C08FB581608FBD8FB58D7F8FBDC1
S1130AC08EB5877F8EBD8EB580618EBD4CC08FB5CF
S1130AD08E7F8FBD8FB582608FBD8EB5877F8EBDB3
S1130AE08EB580618EBD3FC08FB581608FBD8FB5DF
S1130AF082608FBD8EB5877F8EBD8EB580618EBDC1
S1130B0032C08FB58E7F8FBD8FB582608FBD8EB59D
S1130B1088608EBD8EB58F7E8EBD89B78B7F89BF71
S1130B2089B7886089BF89B7806189BF89B78F7D9C
S1130B3089BF19C08FB58E7F8FBD8FB582608FBD81
S1130B408EB588608EBD8EB580618EBD0CC08FB5AC
S1130B5081608FBD8FB582608FBD8EB588608EBD7C
S1130B608EB580618EBD613069F028F0623089F005
S1130B706330B1F01BC08FB58F7B8FBD8FB58F777E
S1130B808FBD14C08FB580648FBD8FB58F778FBD37
S1130B900DC08FB58F7B8FBD8FB580688FBD06C0AC
S1130BA08FB580648FBD8FB580688FBD413069F08B
S1130BB028F0423089F04330B1F01BC08FB58F7EEE
S1130BC08FBD8FB58F7D8FBD14C08FB580618FBDF4
S1130BD08FB58F7D8FBD0DC08FB58F7E8FBD8FB5C7
S1130BE080628FBD06C08FB580618FBD8FB5806276
S1130BF08FBD8EB58E7F8EBD8EB582608EBD8EB557
S1130C008B7F8EBD08959BBD8ABD089599BD88BD17
S1130C1008958EB580648EBD89B7806289BF8EB514
S1130C208E7F8EBD8EB582608EBD8EB58B7F8EBD60
S1130C300895813021F48EB580648EBD08958111AC
S1130C4003C08EB58F7B8EBD089586B597B5089584
S1130C5090936C0080936B0008951DBC1CBC089598
S1130C601F920F920FB60F9211242F933F934F931D
S1130C705F936F937F938F939F93AF93BF93EF9300
S1130C80FF93E0916B00F0916C00309709F00995A7
S1130C90FF91EF91BF91AF919F918F917F916F9150
S1130CA05F914F913F912F910F900FBE0F901F9026
S1130CB018950E946D060C944E070E94470758F041
S1130CC00E94400740F029F45F3F29F00C94370755
S1130CD051110C9482070C943D070E945F0768F33E
S1130CE09923B1F3552391F3951B550BBB27AA27E1
S1130CF062177307840738F09F5F5F4F220F331F1B
S1130D00441FAA1FA9F335D00E2E3AF0E0E832D0E2
S1130D1091505040E695001CCAF72BD0FE2F29D0E5
S1130D20660F771F881FBB1F261737074807AB07B7
S1130D30B0E809F0BB0B802DBF01FF2793585F4F2C
S1130D403AF09E3F510578F00C9437070C948207D3
S1130D505F3FE4F3983ED4F3869577956795B7950E
S1130D60F7959F5FC9F7880F911D9695879597F919
S1130D700895E1E0660F771F881FBB1F6217730792
S1130D808407BA0720F0621B730B840BBA0BEE1FA7
S1130D9088F7E09508950E94670788F09F5798F0B8
S1130DA0B92F9927B751B0F0E1F0660F771F881F6C
S1130DB0991F1AF0BA95C9F714C0B13091F00E9486
S1130DC08107B1E008950C948107672F782F882755
S1130DD0B85F39F0B93FCCF3869577956795B395AD
S1130DE0D9F73EF490958095709561957F4F8F4F1C
S1130DF09F4F0895E89409C097FB3EF49095809521
S1130E00709561957F4F8F4F9F4F9923A9F0F92FCC
S1130E1096E9BB279395F695879577956795B7954A
S1130E20F111F8CFFAF4BB0F11F460FF1BC06F5F30
S1130E307F4F8F4F9F4F16C0882311F096E911C042
S1130E40772321F09EE8872F762F05C0662371F063
S1130E5096E8862F70E060E02AF09A95660F771F77
S1130E60881FDAF7880F9695879597F9089597F96B
S1130E709F6780E870E060E008959FEF80EC08953C
S1130E8000240A9416161706180609060895002465
S1130E900A9412161306140605060895092E0394DF
S1130EA0000C11F4882352F0BB0F40F4BF2B11F453
S1130EB060FF04C06F5F7F4F8F4F9F4F089557FDB2
S1130EC09058440F551F59F05F3F71F04795880FB4
S1130ED097FB991F61F09F3F79F08795089512164B
S1130EE013061406551FF2CF4695F1DF08C01616F7
S1130EF017061806991FF1CF8695710561050894A8
S1130F000895E894BB2766277727CB0197F90895BE
S1130F100E949B070C944E070E94400738F00E94E1
S1130F20470720F0952311F00C9437070C943D07E4
S1130F3011240C9482070E945F0770F3959FC1F3FC
S1130F40950F50E0551F629FF001729FBB27F00D73
S1130F50B11D639FAA27F00DB11DAA1F649F6627C8
S1130F60B00DA11D661F829F2227B00DA11D621F17
S1130F70739FB00DA11D621F839FA00D611D221FD1
S1130F80749F3327A00D611D231F849F600D211DB5
S1130F90822F762F6A2F11249F5750409AF0F1F038
S1130FA088234AF0EE0FFF1FBB1F661F771F881FA1
S1130FB091505040A9F79E3F510580F00C9437079B
S1130FC00C9482075F3FE4F3983ED4F386957795BB
S1130FD06795B795F795E7959F5FC1F7FE2B880F47
S1130FE0911D9695879597F90895A1E21A2EAA1B4B
S1130FF0BB1BFD010DC0AA1FBB1FEE1FFF1FA217C5
S1131000B307E407F50720F0A21BB30BE40BF50BC1
S1131010661F771F881F991F1A9469F7609570954A
S1131020809590959B01AC01BD01CF010895EE0F11
S1131030FF1F0590F491E02D0994A29FB001B39F86
S1131040C001A39F700D811D1124911DB29F700DCD
S1131050811D1124911D08950E941D08A59F900DC6
S1131060B49F900DA49F800D911D11240895F894B0
S1051070FFCFAC
S9030000FC
