:100000000C942A000C9424060C9416030C944D06B0
:100010000C94FE070C94C3070C9447000C946207E1
:100020000C9447000C942C070C948F060C948E03B0
:100030000C9447000C9447000C9447000C94470024
:100040000C9447000C9447000C9447000C94470014
:100050000C94470011241FBECFE5D8E0DEBFCDBF12
:1000600010E0A0E6B0E0E0E6F5E102C005900D92F8
:10007000A838B107D9F720E0A8E8B0E001C01D9288
:10008000AC3AB207E1F70E94C7030C94AE0A0C9495
:10009000000041E064E081E00E94D30441E065E0BB
:1000A00081E00E94D30441E066E081E00E94D30435
:1000B00041E060E081E00E94D30440E064E081E040
:1000C0000E94490540E065E081E00E94490540E06A
:1000D00066E081E00E94490540E060E081E00E9426
:1000E0004905089540E064E081E00E94490541E04F
:1000F00065E081E00E94490540E066E081E00E9401
:10010000490541E060E081E00E944905089541E031
:1001100064E081E00E94490540E065E081E00E94E2
:10012000490541E066E081E00E94490540E060E069
:1001300081E00E944905089540E064E081E00E946A
:10014000490540E065E081E00E94490540E066E045
:1001500081E00E94490540E060E081E00E9449059D
:10016000089540E064E081E00E94490541E065E0D7
:1001700081E00E94490540E066E081E00E94490577
:1001800040E060E081E00E944905089540E064E0BD
:1001900081E00E94490540E065E081E00E94490558
:1001A00040E066E081E00E94490541E060E081E0D6
:1001B0000E9449050895CF93C82F0E9449000E94CC
:1001C00094076C2F70E080E090E00E944E090E943E
:1001D000AB070E94A107CF910895CF93C82F40E0AD
:1001E00061E081E00E94490540E062E081E00E9418
:1001F0004905C4FB442740F964E080E00E944905BA
:10020000C5FB442740F965E080E00E944905C6FB34
:10021000442740F966E080E00E9449054C2F441FC6
:100220004427441F67E080E00E94490541E063E005
:1002300081E00E9449058FE99FE00197F1F700C036
:10024000000040E063E081E00E9449054C2F4170CE
:1002500064E080E00E944905C1FB442740F965E065
:1002600080E00E944905C2FB442740F966E080E037
:100270000E944905C3FB442740F967E080E00E94E3
:10028000490541E063E081E00E9449058FE99FE074
:100290000197F1F700C0000040E063E081E00E94B8
:1002A0004905CF91089541E061E081E00E94D304C7
:1002B00041E062E081E00E94D30441E063E081E03C
:1002C0000E94D30441E064E080E00E94D30441E056
:1002D00065E080E00E94D30441E066E080E00E9497
:1002E000D30441E067E080E00E94D3042FE785EB70
:1002F00091E0215080409040E1F700C0000040E0D4
:1003000061E081E00E94490540E062E081E00E94F6
:10031000490540E064E080E00E94490541E065E075
:1003200080E00E94490540E066E080E00E944905C7
:1003300040E067E080E00E94490541E063E081E041
:100340000E9449058FE99FE00197F1F700C0000086
:1003500040E063E081E00E94490588E20E94ED00F0
:1003600090EF9A95F1F78FE00E94ED0020EF2A952B
:10037000F1F781E00E94ED008FE39FE10197F1F733
:1003800000C0000086E00E94ED000895CF93C82FC2
:1003900041E061E081E00E94490540E062E081E0E7
:1003A0000E944905C4FB442740F964E080E00E94B4
:1003B0004905C5FB442740F965E080E00E944905F6
:1003C000C6FB442740F966E080E00E9449054C2FB7
:1003D000441F4427441F67E080E00E94490541E034
:1003E00063E081E00E9449058FE99FE00197F1F702
:1003F00000C0000040E063E081E00E9449054C2F0E
:10040000417064E080E00E944905C1FB442740F947
:1004100065E080E00E944905C2FB442740F966E0A0
:1004200080E00E944905C3FB442740F967E080E073
:100430000E94490541E063E081E00E9449058FE99F
:100440009FE00197F1F700C0000040E063E081E029
:100450000E944905CF91089581E00E94ED008FE34D
:100460009FE10197F1F700C0000008950F931F93DB
:10047000CF93009729F40CC00E94C601CF5F02C041
:100480008C01C0E0F801EC0FF11D80818111F4CFE7
:10049000CF911F910F910895813019F0823049F06A
:1004A000089580E8860F0E94ED0080EF8A95F1F7AD
:1004B000089580EC860F0E94ED0080EF8A95F1F799
:1004C0000895CF92DF92EF92FF920F931F938B01CB
:1004D0009C01672B682B692B49F580E30E94C601BC
:1004E00045C0DC01CB01880F991FAA1FBB1F6C01FF
:1004F0007D01CC0CDD1CEE1CFF1CCC0CDD1CEE1CAD
:10050000FF1CC80ED91EEA1EFB1EC901B8012AE055
:1005100030E040E050E00E94720A6C0D7D1D8E1D9F
:100520009F1D022F132F242F352F04C061E070E090
:1005300080E090E0011511052105310591F62AE0D2
:1005400030E040E050E00E94720AE22EF32E042FC9
:10055000152F80E3860F0E94C6016E2D7F2D802F00
:10056000912F613071058105910549F71F910F9118
:10057000FF90EF90DF90CF90089541E065E083E039
:100580000E94D3040E94CC06089520E030E040E1B0
:1005900052E40E94AD0820E030E040EA50E40E94BE
:1005A0003C0842E350E00E94E9060E94DF060895FD
:1005B00041E066E083E00E94D30440E063E083E032
:1005C0000E94D30441E063E083E00E94490563E0B8
:1005D00081E00E94BF050E947A060E948506089568
:1005E000CF93DF93EC0180918D00811110C041E029
:1005F00066E083E00E94490580E58A95F1F740E0D6
:1006000066E083E00E94490581E080938D0080913F
:10061000A8009091A900A091AA00B091AB00888396
:100620009983AA83BB83DF91CF9108951F920F9284
:100630000FB60F9211242F933F934F935F936F93B5
:100640007F938F939F93AF93BF93EF93FF9380918B
:100650008D00813009F051C080918C0081110DC056
:1006600012BE81E080938C00109288001092890065
:1006700010928A0010928B0040C080918800909167
:100680008900A0918A00B0918B004427582F692FD0
:100690007A2F82B79A01AB01280F311D411D511DE0
:1006A000A7E5B1E00E94940A20E032EE44E050E079
:1006B0000E94720ACA01B9016F5F7F4F8F4F9F4F2F
:1006C0000E944E096093A8007093A9008093AA002D
:1006D0009093AB002FEF83EF91E02150804090404A
:1006E000E1F700C00000109288001092890010927B
:1006F0008A0010928B0010928C00FF91EF91BF91B5
:10070000AF919F918F917F916F915F914F913F91A9
:100710002F910F900FBE0F901F9018951F920F9260
:100720000FB60F9211242F938F939F93AF93BF9384
:100730008091880090918900A0918A00B0918B00EF
:100740000196A11DB11D8093880090938900A0930C
:100750008A00B0938B00873B9540A105B10568F0F6
:1007600012BE10928D0010928C0010928800109290
:10077000890010928A0010928B00BF91AF919F91D7
:100780008F912F910F900FBE0F901F901895CF93C0
:10079000DF93CDB7DEB72C970FB6F894DEBF0FBE50
:1007A000CDBF0E9453010E9476060E94BD0260E008
:1007B00070E087E093E40E94C5020E94D8020E9484
:1007C00049000E94720085E50E94DB0041E062E082
:1007D00082E00E94D30441E067E082E00E94D304FB
:1007E000CE0101960E94F00269817A818B819C8101
:1007F00020E030E040EA51E40E94000A88236CF0D7
:1008000041E062E082E00E9449050E94720040E0FF
:1008100062E082E00E944905E3CF41E067E082E0C8
:100820000E9449052FEF83ED90E3215080409040D6
:10083000E1F700C0000040E067E082E00E94490567
:100840000E949C000E9487002FEF89E698E12150CA
:1008500080409040E1F700C000000E949C0060E0F2
:1008600070E084E392E40E94C502CE0105960E94E6
:10087000F0020E942C0261E081E00E944C0280E6BE
:1008800090E00E9436026D817E818F8198850E9462
:100890001F090E94610283E690E00E9436022FEF5A
:1008A00083ED90E3215080409040E1F700C00000CC
:1008B00060E070E087E893E40E94C502CE010996EB
:1008C0000E94F0020E942C0262E081E00E944C0231
:1008D00086E690E00E94360269857A858B859C8544
:1008E0000E941F090E94610283E690E00E94360286
:1008F0002FEF83ED90E3215080409040E1F700C05E
:1009000000006D817E818F81988529853A854B8590
:100910005C850E94000A18161CF50E942C0289E6CC
:1009200090E00E94360260E070E087E093E40E946D
:10093000C5022FEF81EE94E0215080409040E1F716
:1009400000C000000E94B1002FEF89E698E121501D
:1009500080409040E1F700C000000E949C0040CF22
:100960000E942C0289E790E00E94360260E070E06D
:1009700087E093E40E94C5022FEF81EE94E02150BE
:1009800080409040E1F700C000000E94C6002FEFB9
:1009900089E698E1215080409040E1F700C00000D6
:1009A0000E949C001DCF843008F072C0683008F0AF
:1009B0006FC0423008F06CC0813001F130F08230FD
:1009C000B1F1833009F44CC00895413059F42AB391
:1009D00081E090E002C0880F991F6A95E2F7822BB0
:1009E0008ABB08952AB381E090E002C0880F991F66
:1009F0006A95E2F7809582238ABB0895413059F4C5
:100A000027B381E090E002C0880F991F6A95E2F752
:100A1000822B87BB089527B381E090E002C0880F46
:100A2000991F6A95E2F78095822387BB089541302C
:100A300059F424B381E090E002C0880F991F6A95B1
:100A4000E2F7822B84BB089524B381E090E002C0DA
:100A5000880F991F6A95E2F78095822384BB0895D9
:100A6000413059F421B381E090E002C0880F991F12
:100A70006A95E2F7822B81BB089521B381E090E073
:100A800002C0880F991F6A95E2F78095822381BB87
:100A90000895843008F072C0683008F06FC04230AA
:100AA00008F06CC0813001F130F08230B1F1833058
:100AB00009F44CC00895413059F42BB381E090E023
:100AC00002C0880F991F6A95E2F7822B8BBB0895AD
:100AD0002BB381E090E002C0880F991F6A95E2F77E
:100AE000809582238BBB0895413059F428B381E06F
:100AF00090E002C0880F991F6A95E2F7822B88BBAD
:100B0000089528B381E090E002C0880F991F6A958C
:100B1000E2F78095822388BB0895413059F425B3CC
:100B200081E090E002C0880F991F6A95E2F7822B5E
:100B300085BB089525B381E090E002C0880F991F1E
:100B40006A95E2F78095822385BB0895413059F478
:100B500022B381E090E002C0880F991F6A95E2F706
:100B6000822B82BB089522B381E090E002C0880FFF
:100B7000991F6A95E2F78095822382BB08958130A0
:100B800061F120F0823009F44FC00895613069F0BE
:100B900028F0623089F06330B1F01BC085B7816006
:100BA00085BF85B7826085BF14C085B78E7F85BF3E
:100BB00085B7826085BF0DC085B78E7F85BF85B73D
:100BC0008D7F85BF06C085B7816085BF85B78D7F66
:100BD00085BF8BB780648BBF0895613069F028F0C2
:100BE000623089F06330B1F01BC085B7846085BF87
:100BF00085B7886085BF14C085B78B7F85BF85B7F3
:100C0000886085BF0DC085B78B7F85BF85B7877F1F
:100C100085BF06C085B7846085BF85B7877F85BFE0
:100C20008BB780688BBF0895662319F0613029F077
:100C300007C084B7806484BF03C084B78F7B84BF40
:100C40008BB780628BBF08951F920F920FB60F92E1
:100C500011242F933F934F935F936F937F938F93C1
:100C60009F93AF93BF93EF93FF93E0919000F09128
:100C70009100309709F00995FF91EF91BF91AF91E5
:100C80009F918F917F916F915F914F913F912F91A4
:100C90000F900FBE0F901F9018951F920F920FB6D6
:100CA0000F9211242F933F934F935F936F937F93F2
:100CB0008F939F93AF93BF93EF93FF93E0918E0039
:100CC000F0918F00309709F00995FF91EF91BF9156
:100CD000AF919F918F917F916F915F914F913F91D4
:100CE0002F910F900FBE0F901F9018958FB78068AF
:100CF0008FBF089583B78F7B83BF83B7877F83BF01
:100D000012BE89B7816089BF089583B7816083BFB0
:100D100083B78D7F83BF83B78B7F83BF08951F9277
:100D20000F920FB60F9211242F933F934F935F931F
:100D30006F937F938F939F93AF93BF93EF93FF93A3
:100D400080919200909193000196909393008093EC
:100D5000920020919400309195008217930759F4E6
:100D60001092930010929200E0919600F0919700FB
:100D7000309709F00995FF91EF91BF91AF919F9145
:100D80008F917F916F915F914F913F912F910F9034
:100D90000FBE0F901F9018958FB58E7F8FBD8FB5AA
:100DA00082608FBD8EB588608EBD8EB580618EBD30
:100DB0008FB58F7B8FBD8FB580688FBD08958EB541
:100DC00081608EBD8EB582608EBD8EB58B7F8EBDEF
:100DD0000895CF92DF92EF92FF92CF93DF936B0152
:100DE0007C01EA0120E030E048EC52E40E94A808CF
:100DF00018165CF19E0140E050E060E970ED83E080
:100E000090E00E94720A2150310937BD26BD66B5B7
:100E100077B56F5F7F4F80E090E00E944E099B01A5
:100E2000AC01C701B6010E94050A20E030E048ECA1
:100E300052E40E94AD0820E030E040E85FE30E9409
:100E40003B080E941F097BBD6ABDDF91CF91FF90D7
:100E5000EF90DF90CF9008951F920F920FB60F92F0
:100E600011242F933F934F935F936F937F938F93AF
:100E70009F93AF93BF93EF93FF93809199008F5F00
:100E800080939900843169F480ED92E19DBD8CBD21
:100E900010929900E0919C00F0919D00309709F02C
:100EA0000995FF91EF91BF91AF919F918F917F91A4
:100EB0006F915F914F913F912F910F900FBE0F90C7
:100EC0001F9018951F920F920FB60F9211242F9317
:100ED0003F934F935F936F937F938F939F93AF93C2
:100EE000BF93EF93FF93809198008F5F809398005A
:100EF000883249F410929800E0919A00F0919B009A
:100F0000309709F00995FF91EF91BF91AF919F91B3
:100F10008F917F916F915F914F913F912F910F90A2
:100F20000FBE0F901F90189585B5806485BD85B55F
:100F3000877F85BD85B5806185BD85B5806285BDAE
:100F4000089585B58E7F85BD85B58D7F85BD85B5B9
:100F5000846085BD089520E030E048EC52E40E94B2
:100F6000AD0820E030E040E853E40E94050A9B0110
:100F7000AC0160E070E08FE793E40E943B080E94C0
:100F80001F0963BD08951F920F920FB60F9211248F
:100F90002F933F934F935F936F937F938F939F9381
:100FA000AF93BF93EF93FF938091A0009091A10026
:100FB00001969093A1008093A000813D934069F435
:100FC0001092A1001092A00081E784BDE091A600DC
:100FD000F091A700309709F00995FF91EF91BF912B
:100FE000AF919F918F917F916F915F914F913F91C1
:100FF0002F910F900FBE0F901F9018951F920F9278
:101000000FB60F9211242F933F934F935F936F93DB
:101010007F938F939F93AF93BF93EF93FF938091B1
:101020009E0090919F00019690939F0080939E0058
:101030002091A2003091A3008217930759F41092D7
:101040009F0010929E00E091A400F091A5003097BF
:1010500009F00995FF91EF91BF91AF919F918F9109
:101060007F916F915F914F913F912F910F900FBEA4
:101070000F901F9018955058BB27AA270E9453081D
:101080000C94C6090E94B80938F00E94BF0920F0EC
:1010900039F49F3F19F426F40C94B5090EF4E09549
:1010A000E7FB0C94AF09E92F0E94D70958F3BA1750
:1010B000620773078407950720F079F4A6F50C946E
:1010C000F9090EF4E0950B2EBA2FA02D0B01B901F2
:1010D00090010C01CA01A0011124FF27591B99F0AE
:1010E000593F50F4503E68F11A16F040A22F232FBA
:1010F000342F4427585FF3CF469537952795A7950A
:10110000F0405395C9F77EF41F16BA0B620B730BB0
:10111000840BBAF09150A1F0FF0FBB1F661F771F21
:10112000881FC2F70EC0BA0F621F731F841F48F4D6
:10113000879577956795B795F7959E3F08F0B0CF5F
:101140009395880F08F09927EE0F97958795089546
:101150000E948B0908F481E008950E94C1080C9454
:10116000C6090E94BF0958F00E94B80940F029F44E
:101170005F3F29F00C94AF0951110C94FA090C94BB
:10118000B5090E94D70968F39923B1F3552391F368
:10119000951B550BBB27AA2762177307840738F0E6
:1011A0009F5F5F4F220F331F441FAA1FA9F335D043
:1011B0000E2E3AF0E0E832D091505040E695001CF7
:1011C000CAF72BD0FE2F29D0660F771F881FBB1FB1
:1011D000261737074807AB07B0E809F0BB0B802D8F
:1011E000BF01FF2793585F4F3AF09E3F510578F0BB
:1011F0000C94AF090C94FA095F3FE4F3983ED4F3E2
:10120000869577956795B795F7959F5FC9F7880F8E
:10121000911D9695879597F90895E1E0660F771FE0
:10122000881FBB1F621773078407BA0720F0621B71
:10123000730B840BBA0BEE1F88F7E09508950E949C
:10124000DF0988F09F5798F0B92F9927B751B0F070
:10125000E1F0660F771F881F991F1AF0BA95C9F73A
:1012600014C0B13091F00E94F909B1E008950C94D6
:10127000F909672F782F8827B85F39F0B93FCCF389
:10128000869577956795B395D9F73EF490958095B7
:10129000709561957F4F8F4F9F4F0895E89409C0D7
:1012A00097FB3EF490958095709561957F4F8F4F99
:1012B0009F4F9923A9F0F92F96E9BB279395F695AF
:1012C000879577956795B795F111F8CFFAF4BB0F2D
:1012D00011F460FF1BC06F5F7F4F8F4F9F4F16C091
:1012E000882311F096E911C0772321F09EE8872F1B
:1012F000762F05C0662371F096E8862F70E060E0D7
:101300002AF09A95660F771F881FDAF7880F96954F
:10131000879597F90895990F0008550FAA0BE0E8F3
:10132000FEEF16161706E807F907C0F012161306A7
:10133000E407F50798F0621B730B840B950B39F4E7
:101340000A2661F0232B242B252B21F408950A264D
:1013500009F4A140A6958FEF811D811D089597F98D
:101360009F6780E870E060E008959FEF80EC08954B
:1013700000240A9416161706180609060895002474
:101380000A9412161306140605060895092E0394EE
:10139000000C11F4882352F0BB0F40F4BF2B11F462
:1013A00060FF04C06F5F7F4F8F4F9F4F089557FDC1
:1013B0009058440F551F59F05F3F71F04795880FC3
:1013C00097FB991F61F09F3F79F08795089512165A
:1013D00013061406551FF2CF4695F1DF08C0161606
:1013E00017061806991FF1CF8695710561050894B7
:1013F0000895E894BB2766277727CB0197F90895CE
:101400000E948B0908F48FEF08950E94180A0C942B
:10141000C6090E94B80938F00E94BF0920F0952340
:1014200011F00C94AF090C94B50911240C94FA092D
:101430000E94D70970F3959FC1F3950F50E0551F97
:10144000629FF001729FBB27F00DB11D639FAA2719
:10145000F00DB11DAA1F649F6627B00DA11D661F68
:10146000829F2227B00DA11D621F739FB00DA11D89
:10147000621F839FA00D611D221F749F3327A00D43
:10148000611D231F849F600D211D822F762F6A2FDF
:1014900011249F5750409AF0F1F088234AF0EE0F44
:1014A000FF1FBB1F661F771F881F91505040A9F771
:1014B0009E3F510580F00C94AF090C94FA095F3FF0
:1014C000E4F3983ED4F3869577956795B795F795AD
:1014D000E7959F5FC1F7FE2B880F911D9695879525
:1014E00097F90895A1E21A2EAA1BBB1BFD010DC09E
:1014F000AA1FBB1FEE1FFF1FA217B307E407F507C4
:1015000020F0A21BB30BE40BF50B661F771F881F9F
:10151000991F1A9469F760957095809590959B0135
:10152000AC01BD01CF0108950E949F0AA59F900DB7
:10153000B49F900DA49F800D911D11240895A29F2A
:10154000B001B39FC001A39F700D811D1124911D97
:10155000B29F700D811D1124911D0895F894FFCF45
:10156000523D00434D004C3D002020204D6F7665DC
:1015700020526967687420200020204D6F76652016
:081580004C45465420202000D8
:00000001FF
